:100000000C9462000C948A000C948A000C948A0070
:100010000C948A000C948A000C948A000C948A0038
:100020000C948A000C948A000C948A000C941D0392
:100030000C948A000C948A000C948A000C948A0018
:100040000C947B020C948A000C94EB020C94C50275
:100050000C948A000C948A000C948A000C948A00F8
:100060000C948A000C948A000000000023002600F3
:10007000290000000000240027002A0000000000E2
:10008000250028002B0004040404040404040202D4
:100090000202020203030303030301020408102007
:1000A0004080010204081020010204081020000012
:1000B0000008000201000003040700000000000027
:1000C00000001E0411241FBECFEFD8E0DEBFCDBF5D
:1000D00011E0A0E0B1E0E2E9FFE002C005900D927E
:1000E000A631B107D9F721E0A6E1B1E001C01D9228
:1000F000A73EB207E1F710E0C2E6D0E004C02197C6
:10010000FE010E94C107C136D107C9F70E947B04D6
:100110000C94C7070C9400008F929F92AF92BF92ED
:10012000FF920F931F93CF93DF93F090E4012BE0A6
:100130002F1508F44CC02091E60108E512E0021BDF
:10014000110927FD1395000F111F000F111F20919A
:10015000E501C8E8D0E0C21BD10927FDD395CC0F3B
:10016000DD1FCC0FDD1F4E010D2E000CAA08BB08B1
:100170009801012E000C440B550B281939094A0926
:100180005B09DC010E944B0624EB30E040E050E0CC
:100190000E942106820E931EA41EB51E8C169D067B
:1001A0002CF0E801801691060CF4E4012297CC0FA4
:1001B000DD1F2FB7F8948F2D90E0FC01EE0FFF1F8D
:1001C000E80FF91FE154FE4FD283C1832FBFDF91A7
:1001D000CF911F910F91FF90BF90AF909F908F9004
:1001E000089590E0FC01E255FF4F2491FC01E65692
:1001F000FF4F3491FC01EA57FF4FE491EE23C9F021
:10020000222339F0233001F1A8F4213019F12230F2
:1002100029F1F0E0EE0FFF1FE458FF4FA591B491D4
:100220008FB7F894EC91611126C030953E233C9332
:100230008FBF08952730A9F02830C9F0243049F73E
:10024000809180008F7D03C0809180008F778093A4
:100250008000DFCF84B58F7784BDDBCF84B58F7D01
:10026000FBCF8091B0008F778093B000D2CF809188
:10027000B0008F7DF9CF3E2BDACFCF93DF9390E0A4
:10028000FC01E656FF4F24918A579F4FFC01849151
:100290008823D1F090E0880F991FFC01EE58FF4FA2
:1002A000A591B491FC01E458FF4FC591D49161111F
:1002B0000EC09FB7F8948C91E22FE0958E238C931B
:1002C0002881E223E8839FBFDF91CF9108958FB704
:1002D000F894EC91E22BEC938FBFF6CFAF92BF92E4
:1002E000CF92DF92EF92FF920F931F93CF93DF9302
:1002F0006C017B018B01040F151FEB015E01AE1831
:10030000BF08C017D10759F06991D601ED91FC9152
:100310000190F081E02DC6010995892B79F7C5017F
:10032000DF91CF911F910F91FF90EF90DF90CF90D1
:10033000BF90AF900895FC01538D448D252F30E080
:10034000842F90E0821B930B541710F0CF960895E2
:1003500001970895FC01918D828D981761F0A28D0F
:10036000AE0FBF2FB11D5D968C91928D9F5F9F73D5
:10037000928F90E008958FEF9FEF0895FC01918D8B
:10038000828D981731F0828DE80FF11D858D90E0F8
:1003900008958FEF9FEF0895FC01918D228D892F95
:1003A00090E0805C9F4F821B91098F73992708957D
:1003B00082E291E00E94CC0121E0892B09F420E047
:1003C000822F089580E090E0892B29F00E94D801C7
:1003D00081110C9400000895FC01A48DA80FB92F81
:1003E000B11DA35ABF4F2C91848D90E001968F735D
:1003F0009927848FA689B7892C93A089B1898C917C
:10040000837080648C93938D848D981306C00288CA
:10041000F389E02D80818F7D80830895EF92FF9294
:100420000F931F93CF93DF93EC0181E0888F9B8D17
:100430008C8D98131AC0E889F989808185FF15C0D1
:100440009FB7F894EE89FF896083E889F9898081F4
:100450008370806480839FBF81E090E0DF91CF91C3
:100460001F910F91FF90EF900895F62E0B8D10E0E5
:100470000F5F1F4F0F731127E02E8C8D8E110CC054
:100480000FB607FCFACFE889F989808185FFF5CF9F
:10049000CE010E94EC01F1CFEB8DEC0FFD2FF11D91
:1004A000E35AFF4FF0829FB7F8940B8FEA89FB89DC
:1004B00080818062CFCFCF93DF93EC01888D88233A
:1004C000B9F0AA89BB89E889F9898C9185FD03C0B7
:1004D000808186FD0DC00FB607FCF7CF8C9185FF9C
:1004E000F2CF808185FFEDCFCE010E94EC01E9CFF4
:1004F000DF91CF9108951F920F920FB60F921124A2
:100500002F933F938F939F93AF93BF9380911E013F
:1005100090911F01A0912001B091210130911D0106
:1005200023E0230F2D3758F50196A11DB11D20930F
:100530001D0180931E0190931F01A0932001B09391
:1005400021018091190190911A01A0911B01B09194
:100550001C010196A11DB11D8093190190931A01F0
:10056000A0931B01B0931C01BF91AF919F918F91FC
:100570003F912F910F900FBE0F901F90189526E876
:10058000230F0296A11DB11DD2CF1F920F920FB65D
:100590000F9211242F933F934F935F936F937F9309
:1005A0008F939F93AF93BF93EF93FF9382E291E07A
:1005B0000E94EC01FF91EF91BF91AF919F918F91BC
:1005C0007F916F915F914F913F912F910F900FBE4F
:1005D0000F901F9018951F920F920FB60F92112433
:1005E0002F938F939F93EF93FF93E0913201F091BC
:1005F00033018081E0913801F091390182FD1BC007
:10060000908180913B018F5F8F7320913C01821715
:1006100041F0E0913B01F0E0EE5DFE4F958F80935D
:100620003B01FF91EF919F918F912F910F900FBE02
:100630000F901F9018958081F4CF1F920F920FB6E4
:100640000F9211242F933F934F935F936F937F9358
:100650008F939F93AF93BF93CF93DF93EF93FF93CA
:1006600080911601C091E301D0E087FF24C0109271
:10067000850010928400809116018F5F809316018F
:1006800080911601082E000C990B8C179D0724F4FD
:10069000809116018C30C4F1809184009091850086
:1006A000049680349C4908F47AC08091840090912B
:1006B0008500049676C080911601082E000C990BD7
:1006C0008C179D07C4F6E09116018E2FEE0F990B43
:1006D000FC01EE0FFF1FE80FF91FE154FE4F808170
:1006E00086FFC9CFE09116018E2FEE0F990BFC010A
:1006F000EE0FFF1FE80FF91FE154FE4F808160E00D
:100700008F730E94F100B7CF209184003091850053
:10071000E09116018E2FEE0F990BFC01EE0FFF1FDB
:10072000E80FF91FE154FE4F81819281820F931FE0
:100730009093890080938800E09116018E2FEE0F30
:10074000990BFC01EE0FFF1FE80FF91FE154FE4F5C
:10075000808186FF11C0E09116018E2FEE0F990B5C
:10076000FC01EE0FFF1FE80FF91FE154FE4F8081DF
:1007700061E08F730E94F100FF91EF91DF91CF91C3
:10078000BF91AF919F918F917F916F915F914F91A9
:100790003F912F910F900FBE0F901F90189580E4FE
:1007A0009CE990938900809388008FEF80931601D5
:1007B000E3CFCF92DF92EF92FF920F931F93E82F38
:1007C000F92F05C0015011092109310961F190810A
:1007D00096239417B9F305C0015011092109310975
:1007E00011F1908196239413F7CFC12CD12CE12CD9
:1007F000F12C0AC08FEFC81AD80AE80AF80A0C15BB
:100800001D052E053F0579F080818623841791F31D
:100810006C2D7D2D8E2D9F2D1F910F91FF90EF90B0
:10082000DF90CF90089560E070E080E090E01F914D
:100830000F91FF90EF90DF90CF90089510922501D7
:100840001092240188EE93E0A0E0B0E080932601AE
:1008500090932701A0932801B093290184E091E0AF
:10086000909323018093220185EC90E090932F01D7
:1008700080932E0184EC90E09093310180933001BD
:1008800080EC90E0909333018093320181EC90E012
:10089000909335018093340182EC90E0909337017E
:1008A0008093360186EC90E0909339018093380173
:1008B00010923B0110923C0110923D0110923E01BA
:1008C0008091E3018C3098F491E0980F9093E301CC
:1008D0008093E40190E0FC01EE0FFF1FE80FF91F89
:1008E000E154FE4F88EB9BE09283818308958FEF64
:1008F0008093E4010895CF93DF93CDB7DEB7A1973E
:100900000FB6F894DEBF0FBECDBF789484B5826079
:1009100084BD84B5816084BD85B5826085BD85B5A3
:10092000816085BD80916E00816080936E00109221
:10093000810080918100826080938100809181009C
:10094000816080938100809180008160809380002D
:100950008091B10084608093B1008091B00081608B
:100960008093B00080917A00846080937A008091B7
:100970007A00826080937A0080917A00816080930F
:100980007A0080917A00806880937A001092C1008A
:100990008091E4018C3008F051C061E087E00E9452
:1009A0003D018091E401282F30E0F901EE0FFF1F97
:1009B000E20FF31FE154FE4F9081907C976090838B
:1009C0001092E5011092E6012CE0622F0E94B5071B
:1009D000829FB001112430E020E0AB01420F531F91
:1009E000FA01EE0FFF1FE40FF51FE154FE4F908157
:1009F00096FD16C02F5F3F4F2C30310571F78111E6
:100A00000FC01092800082E08093810010928500D8
:100A100010928400B19A80916F00826080936F0081
:100A2000E091E4018E2F90E0FC01EE0FFF1FE80F34
:100A3000F91FE154FE4F80818064808361E08AE089
:100A40000E943D0160E08BE00E943D01E091320197
:100A5000F091330182E08083E0912E01F0912F012B
:100A60001082E0913001F09131018FEC808310927F
:100A70003A01E0913601F091370186E08083E09100
:100A80003401F0913501808180618083E0913401EF
:100A9000F0913501808188608083E0913401F0918C
:100AA0003501808180688083E0913401F0913501C7
:100AB00080818F7D808393E0E92EF12C23E2C22E8A
:100AC000D12C35EA232E30E0332E4AE0842E912CAF
:100AD000A12CB12C60E08AE00E94F100C7010197CF
:100AE000F1F761E08AE00E94F100C6010197F1F799
:100AF00060E08AE00E94F100F1016491E1E9F0E038
:100B00008491E82FF0E0EE0FFF1FE859FF4F859129
:100B1000949100E412E42FE030E0462F0E94D903C4
:100B2000611571058105910529F06F5F7F4F8F4F2A
:100B30009F4F9F700E94BC0626E933E44BE05DE3C3
:100B40000E94200720E030E040E05FE30E942007A1
:100B50000E94840670931801609317012B01770F90
:100B60006608770877FE4EC06DE282E291E00E944F
:100B70000E0222273327A9012419350946095709EE
:100B800019A2CE0181963C01CA01B901A5019401C7
:100B90000E945306605DF30162933F012115310508
:100BA0004105510589F76114710461F0019000203D
:100BB000E9F73197AF0146195709B30182E291E095
:100BC0000E946E0142E050E062E171E082E291E059
:100BD0000E946E0180911701909118018630910555
:100BE0003CF586E490E00E948C0080E090E0892B48
:100BF00009F470CF0E94D801882309F46BCF0E94BA
:100C0000000068CFA301920119A2CE0181963C0198
:100C1000CA01B901A50194010E945306605DF30168
:100C200062933F01211531054105510589F7BBCF7D
:100C30000697099718F480EA90E0D5CF8AE590E00E
:100C4000D2CF052E97FB1EF400940E94380657FD64
:100C500007D00E94530607FC03D04EF40C943806CC
:100C600050954095309521953F4F4F4F5F4F0895D8
:100C700090958095709561957F4F8F4F9F4F089508
:100C80000E947506A59F900DB49F900DA49F800DA6
:100C9000911D11240895B7FF0C9440060E94400650
:100CA000821B930B0895A1E21A2EAA1BBB1BFD0108
:100CB0000DC0AA1FBB1FEE1FFF1FA217B307E4073B
:100CC000F50720F0A21BB30BE40BF50B661F771F93
:100CD000881F991F1A9469F7609570958095909573
:100CE0009B01AC01BD01CF010895A29FB001B39F4C
:100CF000C001A39F700D811D1124911DB29F700D25
:100D0000811D1124911D08950E948B066894B111D4
:100D10000C941A0708950E94FF0688F09F5798F0D8
:100D2000B92F9927B751B0F0E1F0660F771F881FF0
:100D3000991F1AF0BA95C9F714C0B13091F00E940A
:100D40001907B1E008950C941907672F782F8827A9
:100D5000B85F39F0B93FCCF3869577956795B39531
:100D6000D9F73EF490958095709561957F4F8F4FA0
:100D70009F4F0895E89409C097FB3EF490958095A5
:100D8000709561957F4F8F4F9F4F9923A9F0F92F51
:100D900096E9BB279395F695879577956795B795CF
:100DA000F111F8CFFAF4BB0F11F460FF1BC06F5FB5
:100DB0007F4F8F4F9F4F16C0882311F096E911C0C7
:100DC000772321F09EE8872F762F05C0662371F0E8
:100DD00096E8862F70E060E02AF09A95660F771FFC
:100DE000881FDAF7880F9695879597F9089557FD2C
:100DF0009058440F551F59F05F3F71F04795880F89
:100E000097FB991F61F09F3F79F08795089512161F
:100E100013061406551FF2CF4695F1DF08C01616CB
:100E200017061806991FF1CF86957105610508947C
:100E30000895E894BB2766277727CB0197F9089593
:100E40000E9433070C94A4070E94960738F00E9472
:100E50009D0720F0952311F00C948D070C949307B7
:100E600011240C941A070E94F70670F3959FC1F3A2
:100E7000950F50E0551F629FF001729FBB27F00D48
:100E8000B11D639FAA27F00DB11DAA1F649F66279D
:100E9000B00DA11D661F829F2227B00DA11D621FEC
:100EA000739FB00DA11D621F839FA00D611D221FA6
:100EB000749F3327A00D611D231F849F600D211D8A
:100EC000822F762F6A2F11249F5750409AF0F1F00D
:100ED00088234AF0EE0FFF1FBB1F661F771F881F76
:100EE00091505040A9F79E3F510580F00C948D071A
:100EF0000C941A075F3FE4F3983ED4F386957795F8
:100F00006795B795F795E7959F5FC1F7FE2B880F1B
:100F1000911D9695879597F9089597F99F6780E8B1
:100F200070E060E008959FEF80EC089500240A943B
:100F30001616170618060906089500240A941216B4
:100F40001306140605060895092E0394000C11F4E7
:100F5000882352F0BB0F40F4BF2B11F460FF04C094
:100F60006F5F7F4F8F4F9F4F0895991B79E004C0AB
:100F7000991F961708F0961B881F7A95C9F78095D8
:100F80000895EE0FFF1F0590F491E02D0994F89459
:020F9000FFCF91
:100F9200000000000E026E019B015B02CC01AA015F
:060FA200BE010D0A000073
:00000001FF
