:100000000C9462000C948A000C948A000C948A0070
:100010000C948A000C948A000C948A000C948A0038
:100020000C948A000C948A000C948A000C948A0028
:100030000C948A000C948A000C948A000C948A0018
:100040000C9434050C948A000C94A4050C947E0541
:100050000C948A000C948A000C948A000C948A00F8
:100060000C9415040C948A00000000002400270062
:100070002A000000000023002600290000000000E4
:10008000250028002B0004040404040404040202D4
:100090000202020203030303030301020408102007
:1000A0004080010204081020010204081020000012
:1000B0000008000201000003040700000000000027
:1000C0000000D60511241FBECFEFD8E0DEBFCDBFA4
:1000D00011E0A0E0B1E0EAEEFFE002C005900D9271
:1000E000A234B107D9F722E0A2E4B1E001C01D9229
:1000F000A43BB207E1F710E0C2E6D0E004C02197CC
:10010000FE010E94ED07C136D107C9F70E941E0605
:100110000C94F3070C94000085ED8093BC00809153
:10012000BC0084FDFCCF1092D90108952091B30149
:10013000260F3327331F21323105ECF42091D901EA
:10014000FC0190E080E0243069F082E00895A09105
:10015000B3012191AC014F565E4FA40FB52FB11DD5
:100160002C930196861798F38091B301680F6093E2
:10017000B30180E0089581E00895089508950895F9
:10018000E0918E0180918D01E81730F4F0E0E359A1
:10019000FE4F808190E008958FEF9FEF089590913A
:1001A0008E0180918D012FEF3FEF981748F4E92FD2
:1001B000F0E0E359FE4F208130E09F5F90938E0185
:1001C000C901089580918D0190918E01891B990B31
:1001D0000895CF92DF92EF92FF920F931F93CF93E8
:1001E000DF937C01CB018A0120916C01222389F0ED
:1001F000EB016B01C40ED51ECC15DD0569F06991CC
:10020000D701ED91FC910190F081E02DC701099596
:10021000F3CF642F0E949600C801DF91CF911F9108
:100220000F91FF90EF90DF90CF900895CF93DF93E1
:100230001F92CDB7DEB7698320916C012223F9F0BC
:1002400020918F01203258F021E030E0FC0133830F
:10025000228390E080E00F90DF91CF91089580910C
:100260009001E82FF0E0E45BFE4F998190838F5F6F
:100270008093900180938F0181E090E0ECCF61E06A
:10028000CE0101960E949600F7CF833081F028F4CA
:10029000813099F08230A9F008958730A9F0883034
:1002A000C9F08430B1F4809180008F7D03C08091CB
:1002B00080008F7780938000089584B58F7784BD08
:1002C000089584B58F7DFBCF8091B0008F778093A8
:1002D000B00008958091B0008F7DF9CFCF93DF9368
:1002E000282F30E0F901E255FF4F8491F901E656DD
:1002F000FF4FD491F901EA57FF4FC491CC2389F005
:1003000081110E944501EC2FF0E0EE0FFF1FE45831
:10031000FF4FA591B4918FB7F894EC91DE2BDC934D
:100320008FBFDF91CF910895CF93DF93E9EBF0E09A
:100330008491E5EAF0E0D491E1E9F0E0C491CC23C6
:10034000A1F081110E944501EC2FF0E0EE0FFF1F9C
:10035000EE58FF4FA591B491EC91ED2381E090E030
:1003600009F480E0DF91CF91089580E090E0FACF2A
:100370003FB7F8948091480190914901A0914A01BA
:10038000B0914B0126B5A89B05C02F3F19F00196EF
:10039000A11DB11D3FBFBA2FA92F982F8827BC01DF
:1003A000CD01620F711D811D911D42E0660F771F07
:1003B000881F991F4A95D1F708958F929F92AF9207
:1003C000BF92CF92DF92EF92FF924B015C010E94AD
:1003D000B8016B017C010E94B8016C197D098E097E
:1003E0009F09683E734081059105A8F321E0821AB8
:1003F0009108A108B10888EEC80E83E0D81EE11C60
:10040000F11C81149104A104B10429F7FF90EF902D
:10041000DF90CF90BF90AF909F908F900895AF9254
:10042000BF92CF92DF92EF92FF920F931F93CF93E1
:10043000DF936C017B018B01040F151FEB015E0143
:10044000AE18BF08C017D10759F06991D601ED91D8
:10045000FC910190F081E02DC6010995892B79F777
:10046000C501DF91CF911F910F91FF90EF90DF9029
:10047000CF90BF90AF900895FC01538D448D252FF0
:1004800030E0842F90E0821B930B541710F0CF962E
:10049000089501970895FC01918D828D981761F060
:1004A000A28DAE0FBF2FB11D5D968C91928D9F5F77
:1004B0009F73928F90E008958FEF9FEF0895FC0156
:1004C000918D828D981731F0828DE80FF11D858D09
:1004D00090E008958FEF9FEF0895FC01918D228D9C
:1004E000892F90E0805C9F4F821B91098F73992721
:1004F00008958BE092E00E946D0221E0892B09F4BF
:1005000020E0822F089580E090E0892B29F00E945E
:10051000790281110C9400000895FC01A48DA80FAC
:10052000B92FB11DA35ABF4F2C91848D90E0019635
:100530008F739927848FA689B7892C93A089B18955
:100540008C91837080648C93938D848D981306C0F6
:100550000288F389E02D80818F7D80830895EF925A
:10056000FF920F931F93CF93DF93EC0181E0888F6D
:100570009B8D8C8D98131AC0E889F989808185FF3D
:1005800015C09FB7F894EE89FF896083E889F989DF
:1005900080818370806480839FBF81E090E0DF91E1
:1005A000CF911F910F91FF90EF900895F62E0B8D34
:1005B00010E00F5F1F4F0F731127E02E8C8D8E11EF
:1005C0000CC00FB607FCFACFE889F989808185FF56
:1005D000F5CFCE010E948D02F1CFEB8DEC0FFD2FF8
:1005E000F11DE35AFF4FF0829FB7F8940B8FEA8911
:1005F000FB8980818062CFCFCF93DF93EC01888D20
:100600008823B9F0AA89BB89E889F9898C9185FD8D
:1006100003C0808186FD0DC00FB607FCF7CF8C911B
:1006200085FFF2CF808185FFEDCFCE010E948D0244
:10063000E9CFDF91CF910895CF93FC01C48121E0F0
:1006400020936C01C09342011092900110928F018F
:100650008385682B8FEF91E00E94160190918F01A6
:10066000913208F03FC08091D9018111FCCF82E026
:100670008093D90181E08093DB018FEF8093D801D3
:100680001092FD019093FC01ACE4B1E0ECEDF1E0DF
:1006900080E098132FC01092FE018091FE01CC0FD4
:1006A000C82BC093FE018091DA01813039F5109298
:1006B000DA018091FE018093BB008091BC0083FD34
:1006C000F8CF85EC8093BC008091D9018230E1F3B2
:1006D0008091D8018F3F31F08091D801803211F0A4
:1006E0008091D8011092900110928F0110926C01AC
:1006F000CF9108952D9121938F5FCBCF85EEE2CFDF
:10070000089590E080E00895FB0101900020E9F752
:100710003197AF01461B570BDC01ED91FC91028034
:10072000F381E02D09948F929F92AF92BF92EF9246
:10073000FF920F931F93CF93DF93CDB7DEB7A197AF
:100740000FB6F894DEBF0FBECDBF7C01FA01CB011E
:1007500019A2223008F42AE08E010F5D1F4F822E6D
:10076000912CB12CA12CBF01A50194010E94CB07B3
:10077000F901CA016A300CF5605DD8016E938D01F4
:10078000232B242B252B79F790E080E0109721F084
:10079000BD01C7010E948403A1960FB6F894DEBF85
:1007A0000FBECDBFDF91CF911F910F91FF90EF90C2
:1007B000BF90AF909F908F900895695CDECF0F93AC
:1007C0001F93CF938C01C62F0E941C036C2F646073
:1007D000C8010E941C036C2F6B7FC8010E941C0380
:1007E00083EC90E00197F1F7CF911F910F9108955D
:1007F0000F931F93CF93DF938C01D62FC42F607F6D
:10080000642B0E94DF0380E1D89FB00111246C2B80
:10081000C801DF91CF911F910F910C94DF0341E04C
:100820000E94F80381E090E008951F920F920FB6A6
:100830000F9211242F933F934F935F936F937F9366
:100840008F939F93AF93BF93EF93FF938091B900E2
:10085000887F803609F44AC0F0F5883209F4A7C0D1
:1008600018F5803109F49BC0B8F4882309F4F9C065
:10087000883009F494C0FF91EF91BF91AF919F919F
:100880008F917F916F915F914F913F912F910F9039
:100890000FBE0F901F901895883109F488C08032E0
:1008A00051F78093D80114C0803409F49DC040F4FE
:1008B0008033B9F38833F9F68093D80185ECB0C062
:1008C000803509F485C0883509F496C0883499F6D6
:1008D0000E948C00D0CF883909F48CC038F5883755
:1008E00029F050F4883611F0803729F683E08093A0
:1008F000D9011092D70157C0883809F47BC08039DC
:1009000019F0803809F0B7CF8091D701803208F014
:1009100071C0E091D70181E08E0F8093D701809163
:10092000BB00F0E0E954FE4F80833DC0803B39F0CE
:10093000E0F4803A09F479C0883A09F09CCF84E069
:100940008093D9011092B4011092B301E091B101EA
:10095000F091B20109958091B30181110FC081E03E
:100960008093B3011092910109C0803C09F4A6CF95
:10097000883C09F4A3CF883B09F07DCFE091B40116
:1009800081E08E0F8093B401F0E0EF56FE4F80813E
:100990008093BB009091B4018091B30129C08091F4
:1009A000FE018093BB0085EC8093BC0064CF9091E6
:1009B000FD018091FC01981758F5E091FD0181E05F
:1009C0008E0F8093FD01F0E0E452FE4F8081E9CF6D
:1009D000E091FD0181E08E0F8093FD018091BB00CD
:1009E000F0E0E452FE4F80839091FD018091FC0184
:1009F0009817C8F285E8D8CFE091FD0181E08E0F0D
:100A00008093FD018091BB00F0E0E452FE4F8083B3
:100A10008091DB0181115CCF81E08093DA0184EA6F
:100A20008093BC001092D90126CF85EC8093BC0046
:100A30001092D9018091D701803230F4E091D70132
:100A4000F0E0E954FE4F10826091D70170E0E09130
:100A5000B501F091B60187EB91E009951092D701AD
:100A60000ACF1092D80134CF1F920F920FB60F9277
:100A700011242F933F938F939F93AF93BF938091B4
:100A8000440190914501A0914601B09147013091F8
:100A9000430123E0230F2D3758F50196A11DB11D09
:100AA000209343018093440190934501A093460114
:100AB000B09347018091480190914901A0914A016A
:100AC000B0914B010196A11DB11D809348019093F7
:100AD0004901A0934A01B0934B01BF91AF919F91FF
:100AE0008F913F912F910F900FBE0F901F901895EF
:100AF00026E8230F0296A11DB11DD2CF1F920F929F
:100B00000FB60F9211242F933F934F935F936F93E0
:100B10007F938F939F93AF93BF93EF93FF938BE05C
:100B200092E00E948D02FF91EF91BF91AF919F9152
:100B30008F917F916F915F914F913F912F910F9086
:100B40000FBE0F901F9018951F920F920FB60F9225
:100B500011242F938F939F93EF93FF93E0911B02A8
:100B6000F0911C028081E0912102F091220282FD2D
:100B70001BC09081809124028F5F8F73209125028A
:100B8000821741F0E0912402F0E0E55FFD4F958F80
:100B900080932402FF91EF919F918F912F910F905D
:100BA0000FBE0F901F9018958081F4CFEFEFF1E00A
:100BB0001382128288EE93E0A0E0B0E084839583F4
:100BC000A683B78324E031E031832083EBE0F2E0B9
:100BD0001382128284839583A683B78386E191E092
:100BE0009183808385EC90E09587848784EC90E006
:100BF0009787868780EC90E0918B808B81EC90E0EA
:100C0000938B828B82EC90E0958B848B86EC90E0CA
:100C1000978B868B118E128E138E148EE8EAF2E07B
:100C20001382128288E291E09183808387E2848339
:100C300080E1818782E0828713860895789484B565
:100C4000826084BD84B5816084BD85B5826085BDC8
:100C500085B5816085BD80916E00816080936E0056
:100C60001092810080918100826080938100809148
:100C700081008160809381008091800081608093F9
:100C800080008091B10084608093B1008091B000B9
:100C900081608093B00080917A00846080937A00B4
:100CA00080917A00826080937A0080917A008160DE
:100CB00080937A0080917A00806880937A00109205
:100CC000C100E0911B02F0911C0282E08083E09160
:100CD0001702F09118021082E0911902F0911A02A5
:100CE0008FEC808310922302E0911F02F09120028A
:100CF00086E08083E0911D02F0911E028081806178
:100D00008083E0911D02F0911E02808188608083C3
:100D1000E0911D02F0911E02808180688083E09145
:100D20001D02F0911E0280818F7D808310928E01C2
:100D300010928D011092900110928F011092D901A2
:100D400081E08093DB011092DA0182E10E946E0162
:100D500083E10E946E018091B9008E7F8093B9007B
:100D60008091B9008D7F8093B90088E48093B800AA
:100D700085E48093BC008DEB90E09093B20180936A
:100D8000B1018EEB90E09093B6018093B501109283
:100D9000AD028091B202823018F098E09093AD02DB
:100DA0008093B00262E370E080E090E00E94DD0199
:100DB0006091B30288EA92E00E941C0368EE73E03F
:100DC00080E090E00E94DD0160E388EA92E00E940A
:100DD000DF03CBE4D6E4CE010197F1F760E388EAC4
:100DE00092E00E94DF032197F1F760E388EA92E046
:100DF0000E94DF0383E592E00197F1F760E288EA61
:100E000092E00E94DF036091AD02606240E088EAF8
:100E100092E00E94F80384E08093AE0240E06CE030
:100E200088EA92E00E94F80340E061E088EA92E0FC
:100E30000E94F803CBE3DFE1CE010197F1F782E0F6
:100E40008093AF0240E066E088EA92E00E94F803F7
:100E500040E062E088EA92E00E94F8032197F1F70F
:100E600088E08093B30260E088EA92E00E941C036D
:100E7000E5EAF0E02491E1E9F0E084918823C1F013
:100E800090E0880F991FFC01E859FF4FC591D4915C
:100E9000FC01E458FF4FA591B4919FB7F894888165
:100EA000E22FE0958E2388838C91E823EC939FBFFB
:100EB00088EE882E83E0982EA12CB12CC0E0D0E0E3
:100EC00060E371E088EA92E00E9484030E9494014A
:100ED0006C01990FEE08FF082AE0B701A601F7FEA2
:100EE0000DC06DE28BE092E00E94AF0244275527CF
:100EF000BA014C195D096E097F092AE08BE092E086
:100F00000E94930340E060E888EA92E00E94F803C0
:100F10002FB7F8946091440170914501809146018A
:100F2000909147012FBFA50194010E94CB07BA0100
:100F3000A9012AE088EA92E00E9493030E949401AA
:100F40006C01990FEE08FF082AE0B701A601F7FE31
:100F50000DC06DE28BE092E00E94AF02442755275E
:100F6000BA014C195D096E097F092AE08BE092E015
:100F70000E9493036FE371E08BE092E00E94840390
:100F8000209709F49DCF0E947902882309F498CF15
:100F90000E94000095CFA1E21A2EAA1BBB1BFD01E7
:100FA0000DC0AA1FBB1FEE1FFF1FA217B307E40748
:100FB000F50720F0A21BB30BE40BF50B661F771FA0
:100FC000881F991F1A9469F7609570958095909580
:100FD0009B01AC01BD01CF010895EE0FFF1F0590ED
:0A0FE000F491E02D0994F894FFCF7E
:100FEA00000000001601E9008103BF00E200CF0003
:100FFA00C00000000000AF020F023C02FC026D02BA
:10100A004B025F02000000000F040F0281038003FD
:10101A00427574746F6E2050726573736564000D47
:02102A000A00BA
:00000001FF
